{
  "contractName": "TodoList",
  "abi": [
    {
      "constant": true,
      "inputs": [],
      "name": "taskCount",
      "outputs": [
        {
          "name": "",
          "type": "uint256"
        }
      ],
      "payable": false,
      "stateMutability": "view",
      "type": "function",
      "signature": "0xb6cb58a5"
    }
  ],
  "bytecode": "0x608060405260008055348015601357600080fd5b506099806100226000396000f3fe608060405260043610603e5763ffffffff7c0100000000000000000000000000000000000000000000000000000000600035041663b6cb58a581146043575b600080fd5b348015604e57600080fd5b5060556067565b60408051918252519081900360200190f35b6000548156fea165627a7a72305820a9ec09aec633ac6bc4b4c94c0096b29c6a97259021a5b593331abbd46feba00a0029",
  "source": "pragma solidity >=0.4.16 <0.9.0;\r\n\r\ncontract TodoList {\r\n    //unit is integer that ranges from 0 to inifinty\r\n    //we can create a way to access the value of this state variable outside of the contract. We can do this with a special modifier keyword called public in Solidity. When we do this, Solidity will magically create a taskCount() function so that we can access this variable's value outside of the smart contract. This will be useful when we are interacting with the smart contract in the console, from the client side application, and inside the test files.\r\n    uint public taskCount = 0;\r\n\r\n}\r\n\r\n\r\n//truffle console is to check that if a smart contact is inside the blockchain",
  "sourcePath": "D:/Lucas/New computer science/Personal study/blockchain/soluim/eth-todo-list/contracts/TodoList.sol",
  "compiler": {
    "name": "solc",
    "version": "0.5.0+commit.1d4f565a.Emscripten.clang"
  },
  "schemaVersion": "3.0.1",
  "updatedAt": "2021-10-11T21:37:35.859Z",
  "devdoc": {
    "methods": {}
  },
  "userdoc": {
    "methods": {}
  }
}